{
  "_format": "hh-sol-artifact-1",
  "contractName": "MarketPlace",
  "sourceName": "contracts/MarketPlace.sol",
  "abi": [
    {
      "inputs": [
        {
          "internalType": "uint256",
          "name": "_feePercent",
          "type": "uint256"
        }
      ],
      "stateMutability": "nonpayable",
      "type": "constructor"
    },
    {
      "anonymous": false,
      "inputs": [
        {
          "indexed": false,
          "internalType": "uint256",
          "name": "itemId",
          "type": "uint256"
        },
        {
          "indexed": true,
          "internalType": "address",
          "name": "nft",
          "type": "address"
        },
        {
          "indexed": false,
          "internalType": "uint256",
          "name": "tokenId",
          "type": "uint256"
        },
        {
          "indexed": false,
          "internalType": "uint256",
          "name": "price",
          "type": "uint256"
        },
        {
          "indexed": true,
          "internalType": "address",
          "name": "seller",
          "type": "address"
        },
        {
          "indexed": true,
          "internalType": "address",
          "name": "buyer",
          "type": "address"
        }
      ],
      "name": "Bought",
      "type": "event"
    },
    {
      "anonymous": false,
      "inputs": [
        {
          "indexed": false,
          "internalType": "uint256",
          "name": "itemId",
          "type": "uint256"
        },
        {
          "indexed": true,
          "internalType": "address",
          "name": "nft",
          "type": "address"
        },
        {
          "indexed": false,
          "internalType": "uint256",
          "name": "tokenId",
          "type": "uint256"
        },
        {
          "indexed": false,
          "internalType": "uint256",
          "name": "price",
          "type": "uint256"
        },
        {
          "indexed": true,
          "internalType": "address",
          "name": "seller",
          "type": "address"
        }
      ],
      "name": "Offered",
      "type": "event"
    },
    {
      "inputs": [],
      "name": "feeAccount",
      "outputs": [
        {
          "internalType": "address payable",
          "name": "",
          "type": "address"
        }
      ],
      "stateMutability": "view",
      "type": "function"
    },
    {
      "inputs": [],
      "name": "feePercentage",
      "outputs": [
        {
          "internalType": "uint256",
          "name": "",
          "type": "uint256"
        }
      ],
      "stateMutability": "view",
      "type": "function"
    },
    {
      "inputs": [
        {
          "internalType": "uint256",
          "name": "_itemId",
          "type": "uint256"
        }
      ],
      "name": "getTotalPrice",
      "outputs": [
        {
          "internalType": "uint256",
          "name": "",
          "type": "uint256"
        }
      ],
      "stateMutability": "view",
      "type": "function"
    },
    {
      "inputs": [],
      "name": "itemCount",
      "outputs": [
        {
          "internalType": "uint256",
          "name": "",
          "type": "uint256"
        }
      ],
      "stateMutability": "view",
      "type": "function"
    },
    {
      "inputs": [
        {
          "internalType": "uint256",
          "name": "",
          "type": "uint256"
        }
      ],
      "name": "items",
      "outputs": [
        {
          "internalType": "uint256",
          "name": "id",
          "type": "uint256"
        },
        {
          "internalType": "contract IERC721",
          "name": "nft",
          "type": "address"
        },
        {
          "internalType": "uint256",
          "name": "tokenId",
          "type": "uint256"
        },
        {
          "internalType": "uint256",
          "name": "price",
          "type": "uint256"
        },
        {
          "internalType": "address payable",
          "name": "seller",
          "type": "address"
        },
        {
          "internalType": "bool",
          "name": "sold",
          "type": "bool"
        }
      ],
      "stateMutability": "view",
      "type": "function"
    },
    {
      "inputs": [
        {
          "internalType": "contract IERC721",
          "name": "_nft",
          "type": "address"
        },
        {
          "internalType": "uint256",
          "name": "_tokenId",
          "type": "uint256"
        },
        {
          "internalType": "uint256",
          "name": "_price",
          "type": "uint256"
        }
      ],
      "name": "listItem",
      "outputs": [],
      "stateMutability": "nonpayable",
      "type": "function"
    },
    {
      "inputs": [
        {
          "internalType": "uint256",
          "name": "_itemId",
          "type": "uint256"
        }
      ],
      "name": "purchaseItem",
      "outputs": [],
      "stateMutability": "payable",
      "type": "function"
    }
  ],
  "bytecode": "0x60c060405234801561001057600080fd5b5060405161118138038061118183398181016040528101906100329190610094565b60016000819055503373ffffffffffffffffffffffffffffffffffffffff1660808173ffffffffffffffffffffffffffffffffffffffff1660601b815250508060a08181525050506100de565b60008151905061008e816100c7565b92915050565b6000602082840312156100a657600080fd5b60006100b48482850161007f565b91505092915050565b6000819050919050565b6100d0816100bd565b81146100db57600080fd5b50565b60805160601c60a05161106d610114600039600081816104b801526105850152600081816101bc0152610799015261106d6000f3fe6080604052600436106100705760003560e01c8063a001ecdd1161004e578063a001ecdd146100f4578063bfb231d21461011f578063ca7dd37514610161578063d38ea5bf1461019e57610070565b806365e17c9d146100755780636bfb0d01146100a057806389bfd38f146100cb575b600080fd5b34801561008157600080fd5b5061008a6101ba565b6040516100979190610b3a565b60405180910390f35b3480156100ac57600080fd5b506100b56101de565b6040516100c29190610c2c565b60405180910390f35b3480156100d757600080fd5b506100f260048036038101906100ed91906109c8565b6101e4565b005b34801561010057600080fd5b506101096104b6565b6040516101169190610c2c565b60405180910390f35b34801561012b57600080fd5b5061014660048036038101906101419190610a17565b6104da565b60405161015896959493929190610c47565b60405180910390f35b34801561016d57600080fd5b5061018860048036038101906101839190610a17565b610563565b6040516101959190610c2c565b60405180910390f35b6101b860048036038101906101b39190610a17565b6105d0565b005b7f000000000000000000000000000000000000000000000000000000000000000081565b60015481565b6002600054141561022a576040517f08c379a000000000000000000000000000000000000000000000000000000000815260040161022190610bec565b60405180910390fd5b600260008190555060008111610275576040517f08c379a000000000000000000000000000000000000000000000000000000000815260040161026c90610c0c565b60405180910390fd5b6001600081548092919061028890610e95565b91905055508273ffffffffffffffffffffffffffffffffffffffff166323b872dd3330856040518463ffffffff1660e01b81526004016102ca93929190610b55565b600060405180830381600087803b1580156102e457600080fd5b505af11580156102f8573d6000803e3d6000fd5b505050506040518060c0016040528060015481526020018473ffffffffffffffffffffffffffffffffffffffff1681526020018381526020018281526020013373ffffffffffffffffffffffffffffffffffffffff168152602001600015158152506002600060015481526020019081526020016000206000820151816000015560208201518160010160006101000a81548173ffffffffffffffffffffffffffffffffffffffff021916908373ffffffffffffffffffffffffffffffffffffffff160217905550604082015181600201556060820151816003015560808201518160040160006101000a81548173ffffffffffffffffffffffffffffffffffffffff021916908373ffffffffffffffffffffffffffffffffffffffff16021790555060a08201518160040160146101000a81548160ff0219169083151502179055509050503373ffffffffffffffffffffffffffffffffffffffff168373ffffffffffffffffffffffffffffffffffffffff167f655a0cf9c8db81512be9a76dc1c5ae5380b8816ce6ad659cd61b715e2999d59a60015485856040516104a193929190610ca8565b60405180910390a36001600081905550505050565b7f000000000000000000000000000000000000000000000000000000000000000081565b60026020528060005260406000206000915090508060000154908060010160009054906101000a900473ffffffffffffffffffffffffffffffffffffffff16908060020154908060030154908060040160009054906101000a900473ffffffffffffffffffffffffffffffffffffffff16908060040160149054906101000a900460ff16905086565b60008060026000848152602001908152602001600020600301549050600060647f0000000000000000000000000000000000000000000000000000000000000000836105af9190610d77565b6105b99190610d46565b905080826105c79190610cf0565b92505050919050565b60026000541415610616576040517f08c379a000000000000000000000000000000000000000000000000000000000815260040161060d90610bec565b60405180910390fd5b6002600081905550600061062982610563565b9050600060026000848152602001908152602001600020905060008311801561065457506001548311155b610693576040517f08c379a000000000000000000000000000000000000000000000000000000000815260040161068a90610bac565b60405180910390fd5b8060040160149054906101000a900460ff16156106e5576040517f08c379a00000000000000000000000000000000000000000000000000000000081526004016106dc90610bcc565b60405180910390fd5b81341015610728576040517f08c379a000000000000000000000000000000000000000000000000000000000815260040161071f90610b8c565b60405180910390fd5b8060040160009054906101000a900473ffffffffffffffffffffffffffffffffffffffff1673ffffffffffffffffffffffffffffffffffffffff166108fc82600301549081150290604051600060405180830381858888f19350505050158015610796573d6000803e3d6000fd5b507f000000000000000000000000000000000000000000000000000000000000000073ffffffffffffffffffffffffffffffffffffffff166108fc8260030154846107e19190610dd1565b9081150290604051600060405180830381858888f1935050505015801561080c573d6000803e3d6000fd5b5060018160040160146101000a81548160ff0219169083151502179055508060010160009054906101000a900473ffffffffffffffffffffffffffffffffffffffff1673ffffffffffffffffffffffffffffffffffffffff166323b872dd303384600201546040518463ffffffff1660e01b815260040161088f93929190610b55565b600060405180830381600087803b1580156108a957600080fd5b505af11580156108bd573d6000803e3d6000fd5b505050503373ffffffffffffffffffffffffffffffffffffffff168160040160009054906101000a900473ffffffffffffffffffffffffffffffffffffffff1673ffffffffffffffffffffffffffffffffffffffff168260010160009054906101000a900473ffffffffffffffffffffffffffffffffffffffff1673ffffffffffffffffffffffffffffffffffffffff167f8b4c9c8a607d67b321582dd8461041b1dc2ceeca70c8b7f37f8e02095cf2e76d868560020154866003015460405161098993929190610ca8565b60405180910390a45050600160008190555050565b6000813590506109ad81611009565b92915050565b6000813590506109c281611020565b92915050565b6000806000606084860312156109dd57600080fd5b60006109eb8682870161099e565b93505060206109fc868287016109b3565b9250506040610a0d868287016109b3565b9150509250925092565b600060208284031215610a2957600080fd5b6000610a37848285016109b3565b91505092915050565b610a4981610e17565b82525050565b610a5881610e05565b82525050565b610a6781610e29565b82525050565b610a7681610e71565b82525050565b6000610a89601283610cdf565b9150610a9482610f3c565b602082019050919050565b6000610aac601283610cdf565b9150610ab782610f65565b602082019050919050565b6000610acf601483610cdf565b9150610ada82610f8e565b602082019050919050565b6000610af2601f83610cdf565b9150610afd82610fb7565b602082019050919050565b6000610b15601c83610cdf565b9150610b2082610fe0565b602082019050919050565b610b3481610e67565b82525050565b6000602082019050610b4f6000830184610a40565b92915050565b6000606082019050610b6a6000830186610a4f565b610b776020830185610a4f565b610b846040830184610b2b565b949350505050565b60006020820190508181036000830152610ba581610a7c565b9050919050565b60006020820190508181036000830152610bc581610a9f565b9050919050565b60006020820190508181036000830152610be581610ac2565b9050919050565b60006020820190508181036000830152610c0581610ae5565b9050919050565b60006020820190508181036000830152610c2581610b08565b9050919050565b6000602082019050610c416000830184610b2b565b92915050565b600060c082019050610c5c6000830189610b2b565b610c696020830188610a6d565b610c766040830187610b2b565b610c836060830186610b2b565b610c906080830185610a40565b610c9d60a0830184610a5e565b979650505050505050565b6000606082019050610cbd6000830186610b2b565b610cca6020830185610b2b565b610cd76040830184610b2b565b949350505050565b600082825260208201905092915050565b6000610cfb82610e67565b9150610d0683610e67565b9250827fffffffffffffffffffffffffffffffffffffffffffffffffffffffffffffffff03821115610d3b57610d3a610ede565b5b828201905092915050565b6000610d5182610e67565b9150610d5c83610e67565b925082610d6c57610d6b610f0d565b5b828204905092915050565b6000610d8282610e67565b9150610d8d83610e67565b9250817fffffffffffffffffffffffffffffffffffffffffffffffffffffffffffffffff0483118215151615610dc657610dc5610ede565b5b828202905092915050565b6000610ddc82610e67565b9150610de783610e67565b925082821015610dfa57610df9610ede565b5b828203905092915050565b6000610e1082610e47565b9050919050565b6000610e2282610e47565b9050919050565b60008115159050919050565b6000610e4082610e05565b9050919050565b600073ffffffffffffffffffffffffffffffffffffffff82169050919050565b6000819050919050565b6000610e7c82610e83565b9050919050565b6000610e8e82610e47565b9050919050565b6000610ea082610e67565b91507fffffffffffffffffffffffffffffffffffffffffffffffffffffffffffffffff821415610ed357610ed2610ede565b5b600182019050919050565b7f4e487b7100000000000000000000000000000000000000000000000000000000600052601160045260246000fd5b7f4e487b7100000000000000000000000000000000000000000000000000000000600052601260045260246000fd5b7f496e73756666696369656e742066756e64730000000000000000000000000000600082015250565b7f4974656d20646f65736e27742065786973740000000000000000000000000000600082015250565b7f4974656d20697320616c726561647920736f6c64000000000000000000000000600082015250565b7f5265656e7472616e637947756172643a207265656e7472616e742063616c6c00600082015250565b7f5072696365206d7573742062652067726561746572207468616e203000000000600082015250565b61101281610e35565b811461101d57600080fd5b50565b61102981610e67565b811461103457600080fd5b5056fea264697066735822122017feb6b42022f5d33db8c85c64c8ce25487b357cf0e5f259ca685a7480a9a25864736f6c63430008040033",
  "linkReferences": {},
  "deployedLinkReferences": {}
}